{
  "contractName": "College",
  "abi": [
    {
      "inputs": [],
      "payable": false,
      "stateMutability": "nonpayable",
      "type": "constructor"
    },
    {
      "anonymous": false,
      "inputs": [
        {
          "indexed": false,
          "internalType": "string",
          "name": "name",
          "type": "string"
        },
        {
          "indexed": false,
          "internalType": "uint256",
          "name": "class",
          "type": "uint256"
        },
        {
          "indexed": false,
          "internalType": "uint256",
          "name": "rollno",
          "type": "uint256"
        },
        {
          "indexed": false,
          "internalType": "uint256",
          "name": "Caste",
          "type": "uint256"
        },
        {
          "indexed": false,
          "internalType": "uint256",
          "name": "marks",
          "type": "uint256"
        },
        {
          "indexed": false,
          "internalType": "uint256",
          "name": "_aDdress",
          "type": "uint256"
        },
        {
          "indexed": false,
          "internalType": "uint256",
          "name": "total",
          "type": "uint256"
        }
      ],
      "name": "School",
      "type": "event"
    },
    {
      "constant": true,
      "inputs": [],
      "name": "fInalamount",
      "outputs": [
        {
          "internalType": "uint256",
          "name": "",
          "type": "uint256"
        }
      ],
      "payable": false,
      "stateMutability": "view",
      "type": "function"
    },
    {
      "constant": true,
      "inputs": [
        {
          "internalType": "uint256",
          "name": "",
          "type": "uint256"
        }
      ],
      "name": "studentsAccts",
      "outputs": [
        {
          "internalType": "uint256",
          "name": "",
          "type": "uint256"
        }
      ],
      "payable": false,
      "stateMutability": "view",
      "type": "function"
    },
    {
      "constant": false,
      "inputs": [
        {
          "internalType": "uint256",
          "name": "_aDdress",
          "type": "uint256"
        },
        {
          "internalType": "string",
          "name": "nAme",
          "type": "string"
        },
        {
          "internalType": "uint256",
          "name": "cLass",
          "type": "uint256"
        },
        {
          "internalType": "uint256",
          "name": "rOllno",
          "type": "uint256"
        },
        {
          "internalType": "uint256",
          "name": "cAste",
          "type": "uint256"
        },
        {
          "internalType": "uint256",
          "name": "mArks",
          "type": "uint256"
        }
      ],
      "name": "setStudentinfo",
      "outputs": [
        {
          "internalType": "uint256",
          "name": "",
          "type": "uint256"
        }
      ],
      "payable": true,
      "stateMutability": "payable",
      "type": "function"
    },
    {
      "constant": true,
      "inputs": [
        {
          "internalType": "uint256",
          "name": "_address",
          "type": "uint256"
        }
      ],
      "name": "Name",
      "outputs": [
        {
          "internalType": "string",
          "name": "name",
          "type": "string"
        }
      ],
      "payable": false,
      "stateMutability": "view",
      "type": "function"
    },
    {
      "constant": true,
      "inputs": [
        {
          "internalType": "uint256",
          "name": "_address",
          "type": "uint256"
        }
      ],
      "name": "Class",
      "outputs": [
        {
          "internalType": "uint256",
          "name": "class",
          "type": "uint256"
        }
      ],
      "payable": false,
      "stateMutability": "view",
      "type": "function"
    },
    {
      "constant": true,
      "inputs": [
        {
          "internalType": "uint256",
          "name": "_address",
          "type": "uint256"
        }
      ],
      "name": "Rollno",
      "outputs": [
        {
          "internalType": "uint256",
          "name": "rollno",
          "type": "uint256"
        }
      ],
      "payable": false,
      "stateMutability": "view",
      "type": "function"
    },
    {
      "constant": true,
      "inputs": [
        {
          "internalType": "uint256",
          "name": "_address",
          "type": "uint256"
        }
      ],
      "name": "Castes",
      "outputs": [
        {
          "internalType": "uint256",
          "name": "Caste",
          "type": "uint256"
        }
      ],
      "payable": false,
      "stateMutability": "view",
      "type": "function"
    },
    {
      "constant": true,
      "inputs": [
        {
          "internalType": "uint256",
          "name": "_address",
          "type": "uint256"
        }
      ],
      "name": "Marks",
      "outputs": [
        {
          "internalType": "uint256",
          "name": "marks",
          "type": "uint256"
        }
      ],
      "payable": false,
      "stateMutability": "view",
      "type": "function"
    },
    {
      "constant": true,
      "inputs": [
        {
          "internalType": "uint256",
          "name": "_address",
          "type": "uint256"
        }
      ],
      "name": "Totall",
      "outputs": [
        {
          "internalType": "uint256",
          "name": "total",
          "type": "uint256"
        }
      ],
      "payable": false,
      "stateMutability": "view",
      "type": "function"
    },
    {
      "constant": true,
      "inputs": [],
      "name": "countStudent",
      "outputs": [
        {
          "internalType": "uint256",
          "name": "",
          "type": "uint256"
        }
      ],
      "payable": false,
      "stateMutability": "view",
      "type": "function"
    },
    {
      "constant": true,
      "inputs": [],
      "name": "getamount",
      "outputs": [
        {
          "internalType": "uint256",
          "name": "",
          "type": "uint256"
        }
      ],
      "payable": false,
      "stateMutability": "view",
      "type": "function"
    }
  ],
  "bytecode": "0x608060405234801561001057600080fd5b50336000806101000a81548173ffffffffffffffffffffffffffffffffffffffff021916908373ffffffffffffffffffffffffffffffffffffffff160217905550610c0a806100606000396000f3fe60806040526004361061009c5760003560e01c8063813d6b9911610064578063813d6b99146101e457806388a62732146102e55780638cdec38014610334578063ba7181da14610383578063bb1a80eb14610437578063c458cc07146104865761009c565b806303627e70146100a15780632512abfd146100cc57806350be72d91461011b578063534117e11461016a5780637a53f42014610195575b600080fd5b3480156100ad57600080fd5b506100b66104b1565b6040518082815260200191505060405180910390f35b3480156100d857600080fd5b50610105600480360360208110156100ef57600080fd5b81019080803590602001909291905050506104be565b6040518082815260200191505060405180910390f35b34801561012757600080fd5b506101546004803603602081101561013e57600080fd5b81019080803590602001909291905050506104de565b6040518082815260200191505060405180910390f35b34801561017657600080fd5b5061017f6104fe565b6040518082815260200191505060405180910390f35b3480156101a157600080fd5b506101ce600480360360208110156101b857600080fd5b8101908080359060200190929190505050610508565b6040518082815260200191505060405180910390f35b6102cf600480360360c08110156101fa57600080fd5b81019080803590602001909291908035906020019064010000000081111561022157600080fd5b82018360208201111561023357600080fd5b8035906020019184600183028401116401000000008311171561025557600080fd5b91908080601f016020809104026020016040519081016040528093929190818152602001838380828437600081840152601f19601f82011690508083019250505050505050919291929080359060200190929190803590602001909291908035906020019092919080359060200190929190505050610528565b6040518082815260200191505060405180910390f35b3480156102f157600080fd5b5061031e6004803603602081101561030857600080fd5b81019080803590602001909291905050506109ee565b6040518082815260200191505060405180910390f35b34801561034057600080fd5b5061036d6004803603602081101561035757600080fd5b8101908080359060200190929190505050610a0f565b6040518082815260200191505060405180910390f35b34801561038f57600080fd5b506103bc600480360360208110156103a657600080fd5b8101908080359060200190929190505050610a2f565b6040518080602001828103825283818151815260200191508051906020019080838360005b838110156103fc5780820151818401526020810190506103e1565b50505050905090810190601f1680156104295780820380516001836020036101000a031916815260200191505b509250505060405180910390f35b34801561044357600080fd5b506104706004803603602081101561045a57600080fd5b8101908080359060200190929190505050610ae7565b6040518082815260200191505060405180910390f35b34801561049257600080fd5b5061049b610b07565b6040518082815260200191505060405180910390f35b6000600880549050905090565b600060076000838152602001908152602001600020600401549050919050565b600060076000838152602001908152602001600020600501549050919050565b6000600554905090565b600060076000838152602001908152602001600020600201549050919050565b60008060009054906101000a900473ffffffffffffffffffffffffffffffffffffffff1673ffffffffffffffffffffffffffffffffffffffff163373ffffffffffffffffffffffffffffffffffffffff161461058357600080fd5b60006007600089815260200190815260200160002090506007600089815260200190815260200160002060070160009054906101000a900460ff1615610614576040517f08c379a0000000000000000000000000000000000000000000000000000000008152600401808060200182810382526023815260200180610bb36023913960400191505060405180910390fd5b8681600001908051906020019061062c929190610b0d565b5085816001018190555084816002018190555083816003018190555082816004018190555060018160070160006101000a81548160ff021916908315150217905550600888908060018154018082558091505090600182039060005260206000200160009091929091909150555060008690506000600182816106ab57fe5b04905060088110156106c4576000600581905550610720565b60088114156106db5761c35060048190555061071f565b60098114156106f25761ea6060048190555061071e565b600a81141561070a576201117060048190555061071d565b600a81111561071c5760006004819055505b5b5b5b5b600086905060006001828161073157fe5b049050600181141561074b576103e86001819055506107a6565b6002811415610762576107d06001819055506107a5565b600381141561077957610bb86001819055506107a4565b600481141561079057610fa06001819055506107a3565b60048111156107a25760006001819055505b5b5b5b5b8660068190555060006064600654029050600061025882816107c457fe5b049050604681106107f657600060028190555060015460025401600381905550600354600454036005819055506108b6565b604b811061082657612d5060028190555060015460025401600381905550600354600454036005819055506108b5565b605081106108565761358460028190555060015460025401600381905550600354600454036005819055506108b4565b605a81106108865761396c60028190555060015460025401600381905550600354600454036005819055506108b3565b605f81106108b257613d5460028190555060015460025401600381905550600354600454036005819055505b5b5b5b5b600a8511156108c9576004546005819055505b60055487600501819055507fac73b0a6ff02db2270d7b797246acfe566dbcfa981f33018ed9f1bc5f7b5b84387600001886001015489600201548a600301548b600401548c600601548d6005015460405180806020018881526020018781526020018681526020018581526020018481526020018381526020018281038252898181546001816001161561010002031660029004815260200191508054600181600116156101000203166002900480156109c45780601f10610999576101008083540402835291602001916109c4565b820191906000526020600020905b8154815290600101906020018083116109a757829003601f168201915b50509850505050505050505060405180910390a16005549750505050505050509695505050505050565b600881815481106109fb57fe5b906000526020600020016000915090505481565b600060076000838152602001908152602001600020600101549050919050565b6060600760008381526020019081526020016000206000018054600181600116156101000203166002900480601f016020809104026020016040519081016040528092919081815260200182805460018160011615610100020316600290048015610adb5780601f10610ab057610100808354040283529160200191610adb565b820191906000526020600020905b815481529060010190602001808311610abe57829003601f168201915b50505050509050919050565b600060076000838152602001908152602001600020600301549050919050565b60055481565b828054600181600116156101000203166002900490600052602060002090601f016020900481019282601f10610b4e57805160ff1916838001178555610b7c565b82800160010185558215610b7c579182015b82811115610b7b578251825591602001919060010190610b60565b5b509050610b899190610b8d565b5090565b610baf91905b80821115610bab576000816000905550600101610b93565b5090565b9056fe417373657420576974682054686973205555494420416c726561647920457869737473a265627a7a723158203e8a4fb9235d1e3a9e0a2f52e5e9192adeee72e9a677a83423f04b3a95eb951164736f6c63430005100032",
  "source": "pragma solidity ^0.5.4;\n  \ncontract College{\n    address private minter;\n     uint private castescholarship;\n     uint private merit;\n    uint private totalfee;\n     uint private totalfees;\n     uint public fInalamount;\n     uint private markss;\n   \n    struct Student {\n    string name;\n    uint class;\n    uint rollno;  \n    uint Caste;\n    uint marks;\n    uint total;\n    uint _aDdress;\n    bool initialized; \n}\n\n\n\nevent School(string  name, uint class, uint rollno, uint Caste, uint marks, uint _aDdress,uint total);\nmapping (uint => Student) students;\nuint [] public studentsAccts;\n\n\nconstructor() public {\n        // Uses the special msg global variable to store the\n        // address of the contract creator\n        minter = msg.sender;\n    }\n\n    function setStudentinfo(uint _aDdress,  string memory nAme, uint cLass, uint rOllno,  uint cAste, uint mArks) public payable returns(uint) {\n   \n   //Task 1 : call the owner of the contractor and we are only giving whole access to the address who deplyed the contract\n    \n    require(msg.sender == minter ); \n    Student storage student = students[_aDdress];\n    require(!students[_aDdress].initialized, \"Asset With This UUID Already Exists\");\n    \n     student.name = nAme;\n     student.class = cLass;\n     student.rollno = rOllno;\n     student.Caste = cAste;\n     student.marks = mArks;\n     student.initialized = true;\n    \n     \n\n     studentsAccts.push(_aDdress);\n    {\n     \n    uint xy = cLass;\n      uint CLASS = xy/1;\n       \n      //Task 2: Create a if else condition \n      //if CLASS is equal to 10 then totalfees has totalfees has be 70000\n      //else if CLASS is greator than 10 totalfees has to be 0\n      \n      if (CLASS < 8) {         \n        fInalamount = 0;\n        }\n        else if (CLASS == 8) {\n        totalfees = 50000;\n        }\n       else if (CLASS == 9) {\n        totalfees = 60000;\n        }\n        else if (CLASS == 10) {\n        totalfees = 70000;\n        }\n         else if (CLASS> 10) {\n         totalfees = 0;\n        }\n       uint d = cAste;\n      uint CASTE = d/1;\n      \n      \n      //Task 3 If CASTE is equal to 1 then castescholarship has to be 1000\n      //If CASTE is equal to 1 then castescholarship has to be 1000\n      //If CASTE is equal to 2 then castescholarship has to be 2000\n      //If CASTE is equal to 3 then castescholarship has to be 3000\n      //If CASTE is equal to 4 then castescholarship has to be 4000\n      \n      \n        if (CASTE == 1) {\n        castescholarship = 1000 ;\n        }\n       else if (CASTE == 2) {\n        castescholarship= 2000;\n        }\n        \n        else if (CASTE == 3) {\n        castescholarship = 3000;\n        }\n        \n       \n        else if (CASTE == 4) {\n         castescholarship = 4000;\n        }\n        else if (CASTE > 4) {\n           castescholarship = 0;\n        }\n        \n     \n       markss = mArks;\n     uint c = markss*100;\n      uint integ = c/600;\n     \n\n      if (integ >= 70) {\n            merit = 0;\n            totalfee = merit+castescholarship;\n            fInalamount = totalfees-totalfee;\n        }\n       else if (integ >= 75 ) { \n           merit = 11600;\n           totalfee = merit+castescholarship;\n           fInalamount = totalfees-totalfee;\n       }\n        else if (integ >= 80) {\n            merit = 13700;\n            totalfee = merit+castescholarship;\n            fInalamount = totalfees-totalfee;\n        }\n       \n        else if (integ >= 90) {\n            merit = 14700;\n           totalfee = merit+castescholarship;\n           fInalamount = totalfees-totalfee;\n        }\n        else if (integ >= 95) {\n            merit = 15700;\n            totalfee = merit+castescholarship;\n            fInalamount = totalfees-totalfee;\n        }\n        \n        \n     \n        {\n        if (CLASS >  10) {\n            fInalamount = totalfees;\n        }\n }\n     student.total = fInalamount;\n     emit School(student.name,student.class,student.rollno,student.Caste,student.marks,student._aDdress,student.total);\n        return(fInalamount);\n    }\n\n     }\n     \nfunction Name(uint _address) view public returns (string memory name) {\n    return (students[_address].name);\n}\nfunction Class(uint _address) view public returns (uint class) {\n    return ( students[_address].class);\n}\nfunction Rollno(uint _address) view public returns (uint rollno) {\n    return ( students[_address].rollno);\n}\nfunction Castes(uint _address) view public returns ( uint Caste) {\n    return (students[_address].Caste);\n}\nfunction Marks(uint _address) view public returns ( uint marks) {\n    return (students[_address].marks);\n}\n\nfunction Totall(uint _address) view public returns ( uint total) {\n    return (students[_address].total);\n}\n  function countStudent() view public returns (uint) {\n      return studentsAccts.length;\n      \n      \n  }\n  \n function getamount() view public returns (uint) {\n      return fInalamount;\n      \n      \n  }\n  \n}",
  "sourcePath": "C:/Users/TEJA/Desktop/Student Capstone Project/contracts/College.sol",
  "compiler": {
    "name": "solc",
    "version": "0.5.16+commit.9c3226ce.Emscripten.clang"
  },
  "schemaVersion": "3.2.4",
  "updatedAt": "2020-09-08T15:14:54.319Z",
  "networkType": "ethereum",
  "devdoc": {
    "methods": {}
  },
  "userdoc": {
    "methods": {}
  }
}