{
  "contractName": "ElectionFactory",
  "abi": [
    {
      "constant": true,
      "inputs": [
        {
          "name": "",
          "type": "uint256"
        }
      ],
      "name": "electionConducted",
      "outputs": [
        {
          "name": "",
          "type": "address"
        }
      ],
      "payable": false,
      "stateMutability": "view",
      "type": "function"
    },
    {
      "anonymous": false,
      "inputs": [
        {
          "indexed": false,
          "name": "_admin",
          "type": "address"
        },
        {
          "indexed": false,
          "name": "_electionAddress",
          "type": "address"
        }
      ],
      "name": "ElectionEvent",
      "type": "event"
    },
    {
      "constant": false,
      "inputs": [
        {
          "name": "_durationInMinutes",
          "type": "uint256"
        },
        {
          "name": "_electionName",
          "type": "string"
        }
      ],
      "name": "createElection",
      "outputs": [],
      "payable": false,
      "stateMutability": "nonpayable",
      "type": "function"
    },
    {
      "constant": true,
      "inputs": [],
      "name": "getElections",
      "outputs": [
        {
          "name": "_conductedElection",
          "type": "address[]"
        }
      ],
      "payable": false,
      "stateMutability": "view",
      "type": "function"
    }
  ],
  "bytecode": "0x608060405234801561001057600080fd5b50613555806100206000396000f300608060405260043610610057576000357c0100000000000000000000000000000000000000000000000000000000900463ffffffff16806361b4548c1461005c5780637da09d94146100c95780639f3a7f521461013c575b600080fd5b34801561006857600080fd5b50610087600480360381019080803590602001909291905050506101a8565b604051808273ffffffffffffffffffffffffffffffffffffffff1673ffffffffffffffffffffffffffffffffffffffff16815260200191505060405180910390f35b3480156100d557600080fd5b5061013a60048036038101908080359060200190929190803590602001908201803590602001908080601f01602080910402602001604051908101604052809392919081815260200183838082843782019150505050505091929192905050506101e6565b005b34801561014857600080fd5b506101516103bd565b6040518080602001828103825283818151815260200191508051906020019060200280838360005b83811015610194578082015181840152602081019050610179565b505050509050019250505060405180910390f35b6000818154811015156101b757fe5b906000526020600020016000915054906101000a900473ffffffffffffffffffffffffffffffffffffffff1681565b60008233836101f361044b565b808481526020018373ffffffffffffffffffffffffffffffffffffffff1673ffffffffffffffffffffffffffffffffffffffff16815260200180602001828103825283818151815260200191508051906020019080838360005b8381101561026857808201518184015260208101905061024d565b50505050905090810190601f1680156102955780820380516001836020036101000a031916815260200191505b50945050505050604051809103906000f0801580156102b8573d6000803e3d6000fd5b50905060008190806001815401808255809150509060018203906000526020600020016000909192909190916101000a81548173ffffffffffffffffffffffffffffffffffffffff021916908373ffffffffffffffffffffffffffffffffffffffff160217905550507f4110e6dce22529242be460d4955dc89edd46097295e097137bd6d9ea5715cbe33382604051808373ffffffffffffffffffffffffffffffffffffffff1673ffffffffffffffffffffffffffffffffffffffff1681526020018273ffffffffffffffffffffffffffffffffffffffff1673ffffffffffffffffffffffffffffffffffffffff1681526020019250505060405180910390a1505050565b6060600080548060200260200160405190810160405280929190818152602001828054801561044157602002820191906000526020600020905b8160009054906101000a900473ffffffffffffffffffffffffffffffffffffffff1673ffffffffffffffffffffffffffffffffffffffff16815260200190600101908083116103f7575b5050505050905090565b6040516130ce8061045c83390190560060806040523480156200001157600080fd5b50604051620030ce380380620030ce833981018060405281019080805190602001909291908051906020019092919080518201929190505050816000806101000a81548173ffffffffffffffffffffffffffffffffffffffff021916908373ffffffffffffffffffffffffffffffffffffffff1602179055508060019080519060200190620000a2929190620000d3565b506001600260006101000a81548160ff021916908315150217905550603c8302420160038190555050505062000182565b828054600181600116156101000203166002900490600052602060002090601f016020900481019282601f106200011657805160ff191683800117855562000147565b8280016001018555821562000147579182015b828111156200014657825182559160200191906001019062000129565b5b5090506200015691906200015a565b5090565b6200017f91905b808211156200017b57600081600090555060010162000161565b5090565b90565b612f3c80620001926000396000f30060806040526004361061013e576000357c0100000000000000000000000000000000000000000000000000000000900463ffffffff1680632977e5661461014357806331d858081461019e57806348c3ce84146102ca57806359e3cb4314610336578063655305ae1461036157806368197360146103a25780636c6c32d01461040357806372ce73ab1461041a57806377df41b7146104875780637ce38474146104ec578063826ba8811461055857806385e8e7a7146105cb57806391a9634f1461065b57806393d2dfda146108955780639a6e64f314610901578063a208b8f014610983578063b13c744b146109ae578063b93244fd14610a1b578063ce2ff3f814610a76578063d4e8ce1314610bdb578063e467d94214610c5d578063e8b1cd1a14610e43578063f851a44014610e88578063f9aea65414610edf575b600080fd5b34801561014f57600080fd5b50610184600480360381019080803573ffffffffffffffffffffffffffffffffffffffff169060200190929190505050610fbf565b604051808215151515815260200191505060405180910390f35b3480156101aa57600080fd5b506102c8600480360381019080803573ffffffffffffffffffffffffffffffffffffffff169060200190929190803590602001908201803590602001908080601f0160208091040260200160405190810160405280939291908181526020018383808284378201915050505050509192919290803590602001908201803590602001908080601f0160208091040260200160405190810160405280939291908181526020018383808284378201915050505050509192919290803590602001908201803590602001908080601f016020809104026020016040519081016040528093929190818152602001838380828437820191505050505050919291929080359060200190929190803560ff169060200190929190505050610fdf565b005b3480156102d657600080fd5b506102df611613565b6040518080602001828103825283818151815260200191508051906020019060200280838360005b83811015610322578082015181840152602081019050610307565b505050509050019250505060405180910390f35b34801561034257600080fd5b5061034b61166b565b6040518082815260200191505060405180910390f35b34801561036d57600080fd5b5061038c600480360381019080803590602001909291905050506116b5565b6040518082815260200191505060405180910390f35b3480156103ae57600080fd5b506103ed60048036038101908080359060200190929190803573ffffffffffffffffffffffffffffffffffffffff1690602001909291905050506116d8565b6040518082815260200191505060405180910390f35b34801561040f57600080fd5b50610418611736565b005b34801561042657600080fd5b506104456004803603810190808035906020019092919050505061193a565b604051808273ffffffffffffffffffffffffffffffffffffffff1673ffffffffffffffffffffffffffffffffffffffff16815260200191505060405180910390f35b34801561049357600080fd5b506104d260048036038101908080359060200190929190803573ffffffffffffffffffffffffffffffffffffffff169060200190929190505050611978565b604051808215151515815260200191505060405180910390f35b3480156104f857600080fd5b50610501611ca3565b6040518080602001828103825283818151815260200191508051906020019060200280838360005b83811015610544578082015181840152602081019050610529565b505050509050019250505060405180910390f35b34801561056457600080fd5b506105c960048036038101908080359060200190929190803590602001908201803590602001908080601f0160208091040260200160405190810160405280939291908181526020018383808284378201915050505050509192919290505050611d31565b005b3480156105d757600080fd5b506105e0611f53565b6040518080602001828103825283818151815260200191508051906020019080838360005b83811015610620578082015181840152602081019050610605565b50505050905090810190601f16801561064d5780820380516001836020036101000a031916815260200191505b509250505060405180910390f35b34801561066757600080fd5b5061069c600480360381019080803573ffffffffffffffffffffffffffffffffffffffff169060200190929190505050611ff1565b604051808773ffffffffffffffffffffffffffffffffffffffff1673ffffffffffffffffffffffffffffffffffffffff1681526020018060200180602001806020018681526020018060200185810385528a818151815260200191508051906020019080838360005b83811015610720578082015181840152602081019050610705565b50505050905090810190601f16801561074d5780820380516001836020036101000a031916815260200191505b50858103845289818151815260200191508051906020019080838360005b8381101561078657808201518184015260208101905061076b565b50505050905090810190601f1680156107b35780820380516001836020036101000a031916815260200191505b50858103835288818151815260200191508051906020019080838360005b838110156107ec5780820151818401526020810190506107d1565b50505050905090810190601f1680156108195780820380516001836020036101000a031916815260200191505b50858103825286818151815260200191508051906020019080838360005b83811015610852578082015181840152602081019050610837565b50505050905090810190601f16801561087f5780820380516001836020036101000a031916815260200191505b509a505050505050505050505060405180910390f35b3480156108a157600080fd5b506108aa6122ad565b6040518080602001828103825283818151815260200191508051906020019060200280838360005b838110156108ed5780820151818401526020810190506108d2565b505050509050019250505060405180910390f35b34801561090d57600080fd5b5061092c6004803603810190808035906020019092919050505061233b565b6040518080602001828103825283818151815260200191508051906020019060200280838360005b8381101561096f578082015181840152602081019050610954565b505050509050019250505060405180910390f35b34801561098f57600080fd5b506109986123df565b6040518082815260200191505060405180910390f35b3480156109ba57600080fd5b506109d960048036038101908080359060200190929190505050612429565b604051808273ffffffffffffffffffffffffffffffffffffffff1673ffffffffffffffffffffffffffffffffffffffff16815260200191505060405180910390f35b348015610a2757600080fd5b50610a5c600480360381019080803573ffffffffffffffffffffffffffffffffffffffff169060200190929190505050612467565b604051808215151515815260200191505060405180910390f35b348015610a8257600080fd5b50610bd9600480360381019080803573ffffffffffffffffffffffffffffffffffffffff169060200190929190803590602001908201803590602001908080601f0160208091040260200160405190810160405280939291908181526020018383808284378201915050505050509192919290803590602001908201803590602001908080601f0160208091040260200160405190810160405280939291908181526020018383808284378201915050505050509192919290803590602001908201803590602001908080601f016020809104026020016040519081016040528093929190818152602001838380828437820191505050505050919291929080359060200190929190803590602001908201803590602001908080601f0160208091040260200160405190810160405280939291908181526020018383808284378201915050505050509192919290505050612487565b005b348015610be757600080fd5b50610c0660048036038101908080359060200190929190505050612a5c565b6040518080602001828103825283818151815260200191508051906020019060200280838360005b83811015610c49578082015181840152602081019050610c2e565b505050509050019250505060405180910390f35b348015610c6957600080fd5b50610c9e600480360381019080803573ffffffffffffffffffffffffffffffffffffffff169060200190929190505050612b00565b604051808873ffffffffffffffffffffffffffffffffffffffff1673ffffffffffffffffffffffffffffffffffffffff1681526020018060200180602001806020018781526020018660ff1660ff1681526020018515151515815260200184810384528a818151815260200191508051906020019080838360005b83811015610d34578082015181840152602081019050610d19565b50505050905090810190601f168015610d615780820380516001836020036101000a031916815260200191505b50848103835289818151815260200191508051906020019080838360005b83811015610d9a578082015181840152602081019050610d7f565b50505050905090810190601f168015610dc75780820380516001836020036101000a031916815260200191505b50848103825288818151815260200191508051906020019080838360005b83811015610e00578082015181840152602081019050610de5565b50505050905090810190601f168015610e2d5780820380516001836020036101000a031916815260200191505b509a505050505050505050505060405180910390f35b348015610e4f57600080fd5b50610e6e60048036038101908080359060200190929190505050612d44565b604051808215151515815260200191505060405180910390f35b348015610e9457600080fd5b50610e9d612d64565b604051808273ffffffffffffffffffffffffffffffffffffffff1673ffffffffffffffffffffffffffffffffffffffff16815260200191505060405180910390f35b348015610eeb57600080fd5b50610f0a60048036038101908080359060200190929190505050612d89565b60405180848152602001806020018373ffffffffffffffffffffffffffffffffffffffff1673ffffffffffffffffffffffffffffffffffffffff168152602001828103825284818151815260200191508051906020019080838360005b83811015610f82578082015181840152602081019050610f67565b50505050905090810190601f168015610faf5780820380516001836020036101000a031916815260200191505b5094505050505060405180910390f35b60086020528060005260406000206000915054906101000a900460ff1681565b3373ffffffffffffffffffffffffffffffffffffffff166000809054906101000a900473ffffffffffffffffffffffffffffffffffffffff1673ffffffffffffffffffffffffffffffffffffffff161415156110c9576040517f08c379a00000000000000000000000000000000000000000000000000000000081526004018080602001828103825260258152602001807f4f6e6c792061646d696e2063616e206578656375746520746869732066756e6381526020017f74696f6e2100000000000000000000000000000000000000000000000000000081525060400191505060405180910390fd5b8573ffffffffffffffffffffffffffffffffffffffff166000809054906101000a900473ffffffffffffffffffffffffffffffffffffffff1673ffffffffffffffffffffffffffffffffffffffff161415151561118e576040517f08c379a00000000000000000000000000000000000000000000000000000000081526004018080602001828103825260168152602001807f41646d696e2063616e2774206265206120766f7465720000000000000000000081525060200191505060405180910390fd5b600560008773ffffffffffffffffffffffffffffffffffffffff1673ffffffffffffffffffffffffffffffffffffffff16815260200190815260200160002060009054906101000a900460ff16151515611250576040517f08c379a00000000000000000000000000000000000000000000000000000000081526004018080602001828103825260148152602001807f566f74657220616c72656164792065786973742100000000000000000000000081525060200191505060405180910390fd5b60048690806001815401808255809150509060018203906000526020600020016000909192909190916101000a81548173ffffffffffffffffffffffffffffffffffffffff021916908373ffffffffffffffffffffffffffffffffffffffff160217905550506001600560008873ffffffffffffffffffffffffffffffffffffffff1673ffffffffffffffffffffffffffffffffffffffff16815260200190815260200160002060006101000a81548160ff02191690831515021790555085600660008873ffffffffffffffffffffffffffffffffffffffff1673ffffffffffffffffffffffffffffffffffffffff16815260200190815260200160002060000160006101000a81548173ffffffffffffffffffffffffffffffffffffffff021916908373ffffffffffffffffffffffffffffffffffffffff16021790555084600660008873ffffffffffffffffffffffffffffffffffffffff1673ffffffffffffffffffffffffffffffffffffffff16815260200190815260200160002060010190805190602001906113e5929190612e6b565b5083600660008873ffffffffffffffffffffffffffffffffffffffff1673ffffffffffffffffffffffffffffffffffffffff168152602001908152602001600020600201908051906020019061143c929190612e6b565b5082600660008873ffffffffffffffffffffffffffffffffffffffff1673ffffffffffffffffffffffffffffffffffffffff1681526020019081526020016000206003019080519060200190611493929190612e6b565b5081600660008873ffffffffffffffffffffffffffffffffffffffff1673ffffffffffffffffffffffffffffffffffffffff1681526020019081526020016000206004018190555080600660008873ffffffffffffffffffffffffffffffffffffffff1673ffffffffffffffffffffffffffffffffffffffff16815260200190815260200160002060050160006101000a81548160ff021916908360ff1602179055506000600660008873ffffffffffffffffffffffffffffffffffffffff1673ffffffffffffffffffffffffffffffffffffffff16815260200190815260200160002060050160016101000a81548160ff021916908315150217905550600c60008381526020019081526020016000206003018690806001815401808255809150509060018203906000526020600020016000909192909190916101000a81548173ffffffffffffffffffffffffffffffffffffffff021916908373ffffffffffffffffffffffffffffffffffffffff16021790555050505050505050565b6060600a80548060200260200160405190810160405280929190818152602001828054801561166157602002820191906000526020600020905b81548152602001906001019080831161164d575b5050505050905090565b6000600960003373ffffffffffffffffffffffffffffffffffffffff1673ffffffffffffffffffffffffffffffffffffffff16815260200190815260200160002060040154905090565b600a818154811015156116c457fe5b906000526020600020016000915090505481565b6000600c600084815260200190815260200160002060040160008373ffffffffffffffffffffffffffffffffffffffff1673ffffffffffffffffffffffffffffffffffffffff16815260200190815260200160002054905092915050565b3373ffffffffffffffffffffffffffffffffffffffff166000809054906101000a900473ffffffffffffffffffffffffffffffffffffffff1673ffffffffffffffffffffffffffffffffffffffff16141515611820576040517f08c379a00000000000000000000000000000000000000000000000000000000081526004018080602001828103825260258152602001807f4f6e6c792061646d696e2063616e206578656375746520746869732066756e6381526020017f74696f6e2100000000000000000000000000000000000000000000000000000081525060400191505060405180910390fd5b60035442111515611899576040517f08c379a00000000000000000000000000000000000000000000000000000000081526004018080602001828103825260198152602001807f456c656374696f6e206973206e6f7420636f6d706c657465640000000000000081525060200191505060405180910390fd5b600260009054906101000a900460ff16151561191d576040517f08c379a00000000000000000000000000000000000000000000000000000000081526004018080602001828103825260168152602001807f456c656374696f6e206973206e6f74206163746976650000000000000000000081525060200191505060405180910390fd5b6000600260006101000a81548160ff021916908315150217905550565b60048181548110151561194957fe5b906000526020600020016000915054906101000a900473ffffffffffffffffffffffffffffffffffffffff1681565b6000600260009054906101000a900460ff1615156119fe576040517f08c379a000000000000000000000000000000000000000000000000000000000815260040180806020018281038252601a8152602001807f456c656374696f6e206d757374206265206f6e2f61637469766500000000000081525060200191505060405180910390fd5b3373ffffffffffffffffffffffffffffffffffffffff166000809054906101000a900473ffffffffffffffffffffffffffffffffffffffff1673ffffffffffffffffffffffffffffffffffffffff1614151515611ac3576040517f08c379a00000000000000000000000000000000000000000000000000000000081526004018080602001828103825260178152602001807f41646d696e2063616e27742063617374206120766f746500000000000000000081525060200191505060405180910390fd5b600660003373ffffffffffffffffffffffffffffffffffffffff1673ffffffffffffffffffffffffffffffffffffffff16815260200190815260200160002060050160019054906101000a900460ff16151515611b88576040517f08c379a000000000000000000000000000000000000000000000000000000000815260040180806020018281038252601d8152602001807f566f74657220616c7265616479206361737465642068697320766f746500000081525060200191505060405180910390fd5b82600960008473ffffffffffffffffffffffffffffffffffffffff1673ffffffffffffffffffffffffffffffffffffffff168152602001908152602001600020600401541415611c98576001600c600085815260200190815260200160002060040160008473ffffffffffffffffffffffffffffffffffffffff1673ffffffffffffffffffffffffffffffffffffffff168152602001908152602001600020600082825401925050819055506001600660003373ffffffffffffffffffffffffffffffffffffffff1673ffffffffffffffffffffffffffffffffffffffff16815260200190815260200160002060050160016101000a81548160ff02191690831515021790555060019050611c9d565b600090505b92915050565b60606007805480602002602001604051908101604052809291908181526020018280548015611d2757602002820191906000526020600020905b8160009054906101000a900473ffffffffffffffffffffffffffffffffffffffff1673ffffffffffffffffffffffffffffffffffffffff1681526020019060010190808311611cdd575b5050505050905090565b3373ffffffffffffffffffffffffffffffffffffffff166000809054906101000a900473ffffffffffffffffffffffffffffffffffffffff1673ffffffffffffffffffffffffffffffffffffffff16141515611e1b576040517f08c379a00000000000000000000000000000000000000000000000000000000081526004018080602001828103825260258152602001807f4f6e6c792061646d696e2063616e206578656375746520746869732066756e6381526020017f74696f6e2100000000000000000000000000000000000000000000000000000081525060400191505060405180910390fd5b600b600083815260200190815260200160002060009054906101000a900460ff16151515611eb1576040517f08c379a00000000000000000000000000000000000000000000000000000000081526004018080602001828103825260198152602001807f436f6e73697475656e637920616c72656164792065786973740000000000000081525060200191505060405180910390fd5b6001600b600084815260200190815260200160002060006101000a81548160ff02191690831515021790555081600c60008481526020019081526020016000206000018190555080600c60008481526020019081526020016000206001019080519060200190611f22929190612e6b565b50600a8290806001815401808255809150509060018203906000526020600020016000909192909190915055505050565b60018054600181600116156101000203166002900480601f016020809104026020016040519081016040528092919081815260200182805460018160011615610100020316600290048015611fe95780601f10611fbe57610100808354040283529160200191611fe9565b820191906000526020600020905b815481529060010190602001808311611fcc57829003601f168201915b505050505081565b60096020528060005260406000206000915090508060000160009054906101000a900473ffffffffffffffffffffffffffffffffffffffff1690806001018054600181600116156101000203166002900480601f0160208091040260200160405190810160405280929190818152602001828054600181600116156101000203166002900480156120c35780601f10612098576101008083540402835291602001916120c3565b820191906000526020600020905b8154815290600101906020018083116120a657829003601f168201915b505050505090806002018054600181600116156101000203166002900480601f0160208091040260200160405190810160405280929190818152602001828054600181600116156101000203166002900480156121615780601f1061213657610100808354040283529160200191612161565b820191906000526020600020905b81548152906001019060200180831161214457829003601f168201915b505050505090806003018054600181600116156101000203166002900480601f0160208091040260200160405190810160405280929190818152602001828054600181600116156101000203166002900480156121ff5780601f106121d4576101008083540402835291602001916121ff565b820191906000526020600020905b8154815290600101906020018083116121e257829003601f168201915b505050505090806004015490806005018054600181600116156101000203166002900480601f0160208091040260200160405190810160405280929190818152602001828054600181600116156101000203166002900480156122a35780601f10612278576101008083540402835291602001916122a3565b820191906000526020600020905b81548152906001019060200180831161228657829003601f168201915b5050505050905086565b6060600480548060200260200160405190810160405280929190818152602001828054801561233157602002820191906000526020600020905b8160009054906101000a900473ffffffffffffffffffffffffffffffffffffffff1673ffffffffffffffffffffffffffffffffffffffff16815260200190600101908083116122e7575b5050505050905090565b6060600c60008381526020019081526020016000206003018054806020026020016040519081016040528092919081815260200182805480156123d357602002820191906000526020600020905b8160009054906101000a900473ffffffffffffffffffffffffffffffffffffffff1673ffffffffffffffffffffffffffffffffffffffff1681526020019060010190808311612389575b50505050509050919050565b6000600660003373ffffffffffffffffffffffffffffffffffffffff1673ffffffffffffffffffffffffffffffffffffffff16815260200190815260200160002060040154905090565b60078181548110151561243857fe5b906000526020600020016000915054906101000a900473ffffffffffffffffffffffffffffffffffffffff1681565b60056020528060005260406000206000915054906101000a900460ff1681565b3373ffffffffffffffffffffffffffffffffffffffff166000809054906101000a900473ffffffffffffffffffffffffffffffffffffffff1673ffffffffffffffffffffffffffffffffffffffff16141515612571576040517f08c379a00000000000000000000000000000000000000000000000000000000081526004018080602001828103825260258152602001807f4f6e6c792061646d696e2063616e206578656375746520746869732066756e6381526020017f74696f6e2100000000000000000000000000000000000000000000000000000081525060400191505060405180910390fd5b8573ffffffffffffffffffffffffffffffffffffffff166000809054906101000a900473ffffffffffffffffffffffffffffffffffffffff1673ffffffffffffffffffffffffffffffffffffffff1614151515612636576040517f08c379a000000000000000000000000000000000000000000000000000000000815260040180806020018281038252601a8152602001807f41646d696e2063616e277420626520612063616e64696461746500000000000081525060200191505060405180910390fd5b600860008773ffffffffffffffffffffffffffffffffffffffff1673ffffffffffffffffffffffffffffffffffffffff16815260200190815260200160002060009054906101000a900460ff161515156126f8576040517f08c379a00000000000000000000000000000000000000000000000000000000081526004018080602001828103825260188152602001807f43616e64696461746520616c726561647920657869737421000000000000000081525060200191505060405180910390fd5b60078690806001815401808255809150509060018203906000526020600020016000909192909190916101000a81548173ffffffffffffffffffffffffffffffffffffffff021916908373ffffffffffffffffffffffffffffffffffffffff160217905550506001600860008873ffffffffffffffffffffffffffffffffffffffff1673ffffffffffffffffffffffffffffffffffffffff16815260200190815260200160002060006101000a81548160ff02191690831515021790555085600960008873ffffffffffffffffffffffffffffffffffffffff1673ffffffffffffffffffffffffffffffffffffffff16815260200190815260200160002060000160006101000a81548173ffffffffffffffffffffffffffffffffffffffff021916908373ffffffffffffffffffffffffffffffffffffffff16021790555084600960008873ffffffffffffffffffffffffffffffffffffffff1673ffffffffffffffffffffffffffffffffffffffff168152602001908152602001600020600101908051906020019061288d929190612e6b565b5083600960008873ffffffffffffffffffffffffffffffffffffffff1673ffffffffffffffffffffffffffffffffffffffff16815260200190815260200160002060020190805190602001906128e4929190612e6b565b5082600960008873ffffffffffffffffffffffffffffffffffffffff1673ffffffffffffffffffffffffffffffffffffffff168152602001908152602001600020600301908051906020019061293b929190612e6b565b5081600960008873ffffffffffffffffffffffffffffffffffffffff1673ffffffffffffffffffffffffffffffffffffffff1681526020019081526020016000206004018190555080600960008873ffffffffffffffffffffffffffffffffffffffff1673ffffffffffffffffffffffffffffffffffffffff16815260200190815260200160002060050190805190602001906129d9929190612e6b565b50600c60008381526020019081526020016000206002018690806001815401808255809150509060018203906000526020600020016000909192909190916101000a81548173ffffffffffffffffffffffffffffffffffffffff021916908373ffffffffffffffffffffffffffffffffffffffff16021790555050505050505050565b6060600c6000838152602001908152602001600020600201805480602002602001604051908101604052809291908181526020018280548015612af457602002820191906000526020600020905b8160009054906101000a900473ffffffffffffffffffffffffffffffffffffffff1673ffffffffffffffffffffffffffffffffffffffff1681526020019060010190808311612aaa575b50505050509050919050565b60066020528060005260406000206000915090508060000160009054906101000a900473ffffffffffffffffffffffffffffffffffffffff1690806001018054600181600116156101000203166002900480601f016020809104026020016040519081016040528092919081815260200182805460018160011615610100020316600290048015612bd25780601f10612ba757610100808354040283529160200191612bd2565b820191906000526020600020905b815481529060010190602001808311612bb557829003601f168201915b505050505090806002018054600181600116156101000203166002900480601f016020809104026020016040519081016040528092919081815260200182805460018160011615610100020316600290048015612c705780601f10612c4557610100808354040283529160200191612c70565b820191906000526020600020905b815481529060010190602001808311612c5357829003601f168201915b505050505090806003018054600181600116156101000203166002900480601f016020809104026020016040519081016040528092919081815260200182805460018160011615610100020316600290048015612d0e5780601f10612ce357610100808354040283529160200191612d0e565b820191906000526020600020905b815481529060010190602001808311612cf157829003601f168201915b5050505050908060040154908060050160009054906101000a900460ff16908060050160019054906101000a900460ff16905087565b600b6020528060005260406000206000915054906101000a900460ff1681565b6000809054906101000a900473ffffffffffffffffffffffffffffffffffffffff1681565b600c602052806000526040600020600091509050806000015490806001018054600181600116156101000203166002900480601f016020809104026020016040519081016040528092919081815260200182805460018160011615610100020316600290048015612e3b5780601f10612e1057610100808354040283529160200191612e3b565b820191906000526020600020905b815481529060010190602001808311612e1e57829003601f168201915b5050505050908060050160009054906101000a900473ffffffffffffffffffffffffffffffffffffffff16905083565b828054600181600116156101000203166002900490600052602060002090601f016020900481019282601f10612eac57805160ff1916838001178555612eda565b82800160010185558215612eda579182015b82811115612ed9578251825591602001919060010190612ebe565b5b509050612ee79190612eeb565b5090565b612f0d91905b80821115612f09576000816000905550600101612ef1565b5090565b905600a165627a7a723058205cb9bb1c89fa51fa112c041383be370d01b3733f50fef3f3e08d57a4cab8a5a90029a165627a7a723058206b44f10205fa2965080b7948ab8d249f20a90d1d24ee9dae97a60bda469193720029",
  "source": "pragma solidity ^0.4.25;\r\n\r\ncontract ElectionFactory {\r\n    \r\n    address[] public electionConducted;\r\n\r\n    event ElectionEvent(address _admin, address _electionAddress);\r\n    \r\n    function createElection (uint _durationInMinutes, string _electionName) public {\r\n        address newElection = new Election(_durationInMinutes, msg.sender, _electionName);\r\n        electionConducted.push(newElection);\r\n        emit ElectionEvent(msg.sender, newElection);\r\n    }\r\n    \r\n    function getElections() public view returns(address[] _conductedElection) {\r\n        return electionConducted;\r\n    }\r\n    \r\n}\r\n\r\n\r\ncontract Election {\r\n    address public admin;\r\n    string public electionName;\r\n    bool electionStatus;\r\n    uint electionDuration;\r\n\r\n    struct Voter {\r\n        address voterId;\r\n        string name;\r\n        string email;\r\n        string phoneNo;\r\n        uint consituencyId;\r\n        uint8 age;\r\n        bool voted;\r\n    }\r\n    \r\n    struct Candidate {\r\n        address candidateId;\r\n        string name;\r\n        string email;\r\n        string phoneNo;\r\n        uint consituencyId;\r\n        string party;\r\n    }\r\n    \r\n    struct Consituency {\r\n        uint consituencyId;\r\n        string name;\r\n        address[] candidates;\r\n        address[] voters;\r\n        mapping(address => uint) votes;\r\n        address winner;\r\n    }\r\n\r\n    address[] public votersList;\r\n    mapping (address => bool) public voterExist;\r\n    mapping (address => Voter) public voterData;\r\n    \r\n    address[] public candidateList;\r\n    mapping (address => bool) public candidateExist;\r\n    mapping (address => Candidate) public candidateData;\r\n\r\n    uint[] public consituencyList;\r\n    mapping (uint => bool) public consituencyExist;\r\n    mapping (uint => Consituency) public consituencyData;\r\n\r\n    constructor(uint _durationInMinutes, address _admin, string _electionName) public {\r\n        admin = _admin;\r\n        electionName = _electionName;\r\n        electionStatus = true;\r\n        electionDuration = now +(_durationInMinutes * 60); \r\n    }\r\n    \r\n    modifier onlyAdmin {\r\n        require(admin == msg.sender, \"Only admin can execute this function!\");\r\n        _;\r\n    }\r\n    \r\n    // modifier isElectionActive {\r\n    //     require(electionStatus, \"Election is close\");\r\n    //     require(now < electionDuration, \"Election is close\");\r\n    //     _;\r\n    // }\r\n    function addConsituency(uint _consituencyId, string _name) public onlyAdmin {\r\n        require(!consituencyExist[_consituencyId], \"Consituency already exist\");\r\n        consituencyExist[_consituencyId] = true;\r\n        consituencyData[_consituencyId].consituencyId = _consituencyId;\r\n        consituencyData[_consituencyId].name = _name;\r\n        consituencyList.push(_consituencyId);\r\n    }\r\n    \r\n    function getConsituencyIdList() public view returns(uint[]) {\r\n        return consituencyList;\r\n    }\r\n   \r\n    function addCandidate(address _candidateId, string _name, string _email, string _phoneNo, uint _consituencyId, string _party) public onlyAdmin{\r\n        // check if admin is registering himself as candidate\r\n        require(admin != _candidateId, \"Admin can't be a candidate\");\r\n        \r\n        // It will check if candidate is registered or not\r\n        require(!candidateExist[_candidateId], \"Candidate already exist!\");\r\n        // add candidate in candidateList\r\n        candidateList.push(_candidateId);\r\n            \r\n        candidateExist[_candidateId] = true;\r\n        candidateData[_candidateId].candidateId = _candidateId;\r\n        candidateData[_candidateId].name = _name;\r\n        candidateData[_candidateId].email = _email;\r\n        candidateData[_candidateId].phoneNo = _phoneNo;\r\n        candidateData[_candidateId].consituencyId = _consituencyId;\r\n        candidateData[_candidateId].party = _party;\r\n        // add candidate to its consituency\r\n        consituencyData[_consituencyId].candidates.push(_candidateId);\r\n    }\r\n    \r\n    function getCandidatesIdList() public view returns(address[]) {\r\n        return candidateList;\r\n    }\r\n    \r\n    // get candidate list enrolled in a consituency\r\n    function getConsituencyCandidates(uint _consituencyId) public view returns(address[]) {\r\n        return consituencyData[_consituencyId].candidates;\r\n    }\r\n\r\n    // get consituency of a candidate\r\n    function getCandidateConsituency () public view returns(uint) {\r\n        return candidateData[msg.sender].consituencyId;\r\n    }\r\n    \r\n    function addVoter(address _voterId, string _name, string _email,string _phoneNo, uint _consituencyId, uint8 _age) \r\n        public onlyAdmin{\r\n        // check if admin is registering himself\r\n        require(admin != _voterId, \"Admin can't be a voter\");\r\n        // It will check if voter is registered or not\r\n        require(!voterExist[_voterId], \"Voter already exist!\");\r\n        \r\n        votersList.push(_voterId);\r\n        \r\n        voterExist[_voterId] = true;\r\n        \r\n        voterData[_voterId].voterId = _voterId;\r\n        voterData[_voterId].name = _name;\r\n        voterData[_voterId].email = _email;\r\n        voterData[_voterId].phoneNo = _phoneNo;\r\n        voterData[_voterId].consituencyId = _consituencyId;\r\n        voterData[_voterId].age = _age;\r\n        voterData[_voterId].voted = false;\r\n        \r\n        // add voter to its consituency\r\n        consituencyData[_consituencyId].voters.push(_voterId);\r\n    }\r\n\r\n    function getVotersIdList() public view returns(address[]) {\r\n        return votersList;\r\n    }\r\n    \r\n    // get voters list enrolled in a consituency\r\n    function getConsituencyVoters(uint _consituencyId) public view returns(address[]) {\r\n        return consituencyData[_consituencyId].voters;\r\n    }\r\n\r\n    // get consituency of a voter\r\n    function getVoterConsituency() public view returns(uint) {\r\n        return voterData[msg.sender].consituencyId;\r\n    }\r\n    \r\n    function castVote(uint _consituencyId, address _candidateId) public returns(bool status) {\r\n         //election must be active\r\n        require(electionStatus, \"Election must be on/active\");\r\n\r\n        // admin can't cast a vote\r\n        require(admin != msg.sender, \"Admin can't cast a vote\");\r\n\r\n        // check if voter has voted or not\r\n        require(!voterData[msg.sender].voted, \"Voter already casted his vote\");\r\n        \r\n        // check if candidate is of respective consituency\r\n        if(candidateData[_candidateId].consituencyId == _consituencyId) {\r\n            consituencyData[_consituencyId].votes[_candidateId] += 1;\r\n            voterData[msg.sender].voted = true;\r\n            return true;\r\n        }else {\r\n            return false;\r\n        }\r\n    }\r\n\r\n    function getVotes(uint _consituencyId, address _candidateId) public view returns(uint) {\r\n        return consituencyData[_consituencyId].votes[_candidateId];\r\n    }\r\n    function closeElection() public onlyAdmin {\r\n        require(now > electionDuration, \"Election is not completed\");\r\n        require(electionStatus, \"Election is not active\");\r\n        electionStatus = false;\r\n    }\r\n    \r\n}",
  "sourcePath": "C:/Users/TEJA/Desktop/election/contracts/Election.sol",
  "compiler": {
    "name": "solc",
    "version": "0.4.25+commit.59dbf8f1.Emscripten.clang"
  },
  "schemaVersion": "3.4.1",
  "updatedAt": "2021-06-10T09:38:16.931Z",
  "devdoc": {
    "methods": {}
  },
  "userdoc": {
    "methods": {}
  }
}