{
  "contractName": "ElectionFactory",
  "abi": [
    {
      "constant": true,
      "inputs": [
        {
          "name": "",
          "type": "uint256"
        }
      ],
      "name": "electionConducted",
      "outputs": [
        {
          "name": "",
          "type": "address"
        }
      ],
      "payable": false,
      "stateMutability": "view",
      "type": "function"
    },
    {
      "anonymous": false,
      "inputs": [
        {
          "indexed": false,
          "name": "_admin",
          "type": "address"
        },
        {
          "indexed": false,
          "name": "_electionAddress",
          "type": "address"
        }
      ],
      "name": "ElectionEvent",
      "type": "event"
    },
    {
      "constant": false,
      "inputs": [
        {
          "name": "_durationInMinutes",
          "type": "uint256"
        },
        {
          "name": "_electionName",
          "type": "string"
        }
      ],
      "name": "createElection",
      "outputs": [],
      "payable": false,
      "stateMutability": "nonpayable",
      "type": "function"
    },
    {
      "constant": true,
      "inputs": [],
      "name": "getElections",
      "outputs": [
        {
          "name": "_conductedElection",
          "type": "address[]"
        }
      ],
      "payable": false,
      "stateMutability": "view",
      "type": "function"
    }
  ],
  "bytecode": "0x608060405234801561001057600080fd5b5061416d806100206000396000f300608060405260043610610057576000357c0100000000000000000000000000000000000000000000000000000000900463ffffffff16806361b4548c1461005c5780637da09d94146100c95780639f3a7f521461013c575b600080fd5b34801561006857600080fd5b50610087600480360381019080803590602001909291905050506101a8565b604051808273ffffffffffffffffffffffffffffffffffffffff1673ffffffffffffffffffffffffffffffffffffffff16815260200191505060405180910390f35b3480156100d557600080fd5b5061013a60048036038101908080359060200190929190803590602001908201803590602001908080601f01602080910402602001604051908101604052809392919081815260200183838082843782019150505050505091929192905050506101e6565b005b34801561014857600080fd5b506101516103bd565b6040518080602001828103825283818151815260200191508051906020019060200280838360005b83811015610194578082015181840152602081019050610179565b505050509050019250505060405180910390f35b6000818154811015156101b757fe5b906000526020600020016000915054906101000a900473ffffffffffffffffffffffffffffffffffffffff1681565b60008233836101f361044b565b808481526020018373ffffffffffffffffffffffffffffffffffffffff1673ffffffffffffffffffffffffffffffffffffffff16815260200180602001828103825283818151815260200191508051906020019080838360005b8381101561026857808201518184015260208101905061024d565b50505050905090810190601f1680156102955780820380516001836020036101000a031916815260200191505b50945050505050604051809103906000f0801580156102b8573d6000803e3d6000fd5b50905060008190806001815401808255809150509060018203906000526020600020016000909192909190916101000a81548173ffffffffffffffffffffffffffffffffffffffff021916908373ffffffffffffffffffffffffffffffffffffffff160217905550507f4110e6dce22529242be460d4955dc89edd46097295e097137bd6d9ea5715cbe33382604051808373ffffffffffffffffffffffffffffffffffffffff1673ffffffffffffffffffffffffffffffffffffffff1681526020018273ffffffffffffffffffffffffffffffffffffffff1673ffffffffffffffffffffffffffffffffffffffff1681526020019250505060405180910390a1505050565b6060600080548060200260200160405190810160405280929190818152602001828054801561044157602002820191906000526020600020905b8160009054906101000a900473ffffffffffffffffffffffffffffffffffffffff1673ffffffffffffffffffffffffffffffffffffffff16815260200190600101908083116103f7575b5050505050905090565b604051613ce68061045c83390190560060806040523480156200001157600080fd5b5060405162003ce638038062003ce6833981018060405281019080805190602001909291908051906020019092919080518201929190505050816000806101000a81548173ffffffffffffffffffffffffffffffffffffffff021916908373ffffffffffffffffffffffffffffffffffffffff1602179055508060019080519060200190620000a2929190620000d3565b506001600260006101000a81548160ff021916908315150217905550603c8302420160038190555050505062000182565b828054600181600116156101000203166002900490600052602060002090601f016020900481019282601f106200011657805160ff191683800117855562000147565b8280016001018555821562000147579182015b828111156200014657825182559160200191906001019062000129565b5b5090506200015691906200015a565b5090565b6200017f91905b808211156200017b57600081600090555060010162000161565b5090565b90565b613b5480620001926000396000f300608060405260043610610154576000357c0100000000000000000000000000000000000000000000000000000000900463ffffffff1680632977e566146101595780632a466ac7146101b457806331d85808146103ee57806348c3ce841461051a57806359e3cb4314610586578063655305ae146105b157806368197360146105f25780636c6c32d01461065357806372ce73ab1461066a57806377df41b7146106d75780637ce384741461073c578063826ba881146107a857806385e8e7a71461081b5780638fb4cd80146108ab57806391a9634f14610a8657806393d2dfda14610cc05780639a6e64f314610d2c578063a208b8f014610dae578063b13c744b14610dd9578063b93244fd14610e46578063ce2ff3f814610ea1578063d4e8ce1314611006578063e467d94214611088578063e8b1cd1a1461126e578063f851a440146112b3578063f9aea6541461130a575b600080fd5b34801561016557600080fd5b5061019a600480360381019080803573ffffffffffffffffffffffffffffffffffffffff1690602001909291905050506113ea565b604051808215151515815260200191505060405180910390f35b3480156101c057600080fd5b506101f5600480360381019080803573ffffffffffffffffffffffffffffffffffffffff16906020019092919050505061140a565b604051808773ffffffffffffffffffffffffffffffffffffffff1673ffffffffffffffffffffffffffffffffffffffff1681526020018060200180602001806020018681526020018060200185810385528a818151815260200191508051906020019080838360005b8381101561027957808201518184015260208101905061025e565b50505050905090810190601f1680156102a65780820380516001836020036101000a031916815260200191505b50858103845289818151815260200191508051906020019080838360005b838110156102df5780820151818401526020810190506102c4565b50505050905090810190601f16801561030c5780820380516001836020036101000a031916815260200191505b50858103835288818151815260200191508051906020019080838360005b8381101561034557808201518184015260208101905061032a565b50505050905090810190601f1680156103725780820380516001836020036101000a031916815260200191505b50858103825286818151815260200191508051906020019080838360005b838110156103ab578082015181840152602081019050610390565b50505050905090810190601f1680156103d85780820380516001836020036101000a031916815260200191505b509a505050505050505050505060405180910390f35b3480156103fa57600080fd5b50610518600480360381019080803573ffffffffffffffffffffffffffffffffffffffff169060200190929190803590602001908201803590602001908080601f0160208091040260200160405190810160405280939291908181526020018383808284378201915050505050509192919290803590602001908201803590602001908080601f0160208091040260200160405190810160405280939291908181526020018383808284378201915050505050509192919290803590602001908201803590602001908080601f016020809104026020016040519081016040528093929190818152602001838380828437820191505050505050919291929080359060200190929190803560ff169060200190929190505050611848565b005b34801561052657600080fd5b5061052f611e7c565b6040518080602001828103825283818151815260200191508051906020019060200280838360005b83811015610572578082015181840152602081019050610557565b505050509050019250505060405180910390f35b34801561059257600080fd5b5061059b611ed4565b6040518082815260200191505060405180910390f35b3480156105bd57600080fd5b506105dc60048036038101908080359060200190929190505050611f1e565b6040518082815260200191505060405180910390f35b3480156105fe57600080fd5b5061063d60048036038101908080359060200190929190803573ffffffffffffffffffffffffffffffffffffffff169060200190929190505050611f41565b6040518082815260200191505060405180910390f35b34801561065f57600080fd5b50610668611f9f565b005b34801561067657600080fd5b50610695600480360381019080803590602001909291905050506121a3565b604051808273ffffffffffffffffffffffffffffffffffffffff1673ffffffffffffffffffffffffffffffffffffffff16815260200191505060405180910390f35b3480156106e357600080fd5b5061072260048036038101908080359060200190929190803573ffffffffffffffffffffffffffffffffffffffff1690602001909291905050506121e1565b604051808215151515815260200191505060405180910390f35b34801561074857600080fd5b5061075161250c565b6040518080602001828103825283818151815260200191508051906020019060200280838360005b83811015610794578082015181840152602081019050610779565b505050509050019250505060405180910390f35b3480156107b457600080fd5b5061081960048036038101908080359060200190929190803590602001908201803590602001908080601f016020809104026020016040519081016040528093929190818152602001838380828437820191505050505050919291929050505061259a565b005b34801561082757600080fd5b506108306127bc565b6040518080602001828103825283818151815260200191508051906020019080838360005b83811015610870578082015181840152602081019050610855565b50505050905090810190601f16801561089d5780820380516001836020036101000a031916815260200191505b509250505060405180910390f35b3480156108b757600080fd5b506108ec600480360381019080803573ffffffffffffffffffffffffffffffffffffffff16906020019092919050505061285a565b604051808773ffffffffffffffffffffffffffffffffffffffff1673ffffffffffffffffffffffffffffffffffffffff1681526020018060200180602001806020018681526020018560ff1660ff168152602001848103845289818151815260200191508051906020019080838360005b8381101561097857808201518184015260208101905061095d565b50505050905090810190601f1680156109a55780820380516001836020036101000a031916815260200191505b50848103835288818151815260200191508051906020019080838360005b838110156109de5780820151818401526020810190506109c3565b50505050905090810190601f168015610a0b5780820380516001836020036101000a031916815260200191505b50848103825287818151815260200191508051906020019080838360005b83811015610a44578082015181840152602081019050610a29565b50505050905090810190601f168015610a715780820380516001836020036101000a031916815260200191505b50995050505050505050505060405180910390f35b348015610a9257600080fd5b50610ac7600480360381019080803573ffffffffffffffffffffffffffffffffffffffff169060200190929190505050612c09565b604051808773ffffffffffffffffffffffffffffffffffffffff1673ffffffffffffffffffffffffffffffffffffffff1681526020018060200180602001806020018681526020018060200185810385528a818151815260200191508051906020019080838360005b83811015610b4b578082015181840152602081019050610b30565b50505050905090810190601f168015610b785780820380516001836020036101000a031916815260200191505b50858103845289818151815260200191508051906020019080838360005b83811015610bb1578082015181840152602081019050610b96565b50505050905090810190601f168015610bde5780820380516001836020036101000a031916815260200191505b50858103835288818151815260200191508051906020019080838360005b83811015610c17578082015181840152602081019050610bfc565b50505050905090810190601f168015610c445780820380516001836020036101000a031916815260200191505b50858103825286818151815260200191508051906020019080838360005b83811015610c7d578082015181840152602081019050610c62565b50505050905090810190601f168015610caa5780820380516001836020036101000a031916815260200191505b509a505050505050505050505060405180910390f35b348015610ccc57600080fd5b50610cd5612ec5565b6040518080602001828103825283818151815260200191508051906020019060200280838360005b83811015610d18578082015181840152602081019050610cfd565b505050509050019250505060405180910390f35b348015610d3857600080fd5b50610d5760048036038101908080359060200190929190505050612f53565b6040518080602001828103825283818151815260200191508051906020019060200280838360005b83811015610d9a578082015181840152602081019050610d7f565b505050509050019250505060405180910390f35b348015610dba57600080fd5b50610dc3612ff7565b6040518082815260200191505060405180910390f35b348015610de557600080fd5b50610e0460048036038101908080359060200190929190505050613041565b604051808273ffffffffffffffffffffffffffffffffffffffff1673ffffffffffffffffffffffffffffffffffffffff16815260200191505060405180910390f35b348015610e5257600080fd5b50610e87600480360381019080803573ffffffffffffffffffffffffffffffffffffffff16906020019092919050505061307f565b604051808215151515815260200191505060405180910390f35b348015610ead57600080fd5b50611004600480360381019080803573ffffffffffffffffffffffffffffffffffffffff169060200190929190803590602001908201803590602001908080601f0160208091040260200160405190810160405280939291908181526020018383808284378201915050505050509192919290803590602001908201803590602001908080601f0160208091040260200160405190810160405280939291908181526020018383808284378201915050505050509192919290803590602001908201803590602001908080601f016020809104026020016040519081016040528093929190818152602001838380828437820191505050505050919291929080359060200190929190803590602001908201803590602001908080601f016020809104026020016040519081016040528093929190818152602001838380828437820191505050505050919291929050505061309f565b005b34801561101257600080fd5b5061103160048036038101908080359060200190929190505050613674565b6040518080602001828103825283818151815260200191508051906020019060200280838360005b83811015611074578082015181840152602081019050611059565b505050509050019250505060405180910390f35b34801561109457600080fd5b506110c9600480360381019080803573ffffffffffffffffffffffffffffffffffffffff169060200190929190505050613718565b604051808873ffffffffffffffffffffffffffffffffffffffff1673ffffffffffffffffffffffffffffffffffffffff1681526020018060200180602001806020018781526020018660ff1660ff1681526020018515151515815260200184810384528a818151815260200191508051906020019080838360005b8381101561115f578082015181840152602081019050611144565b50505050905090810190601f16801561118c5780820380516001836020036101000a031916815260200191505b50848103835289818151815260200191508051906020019080838360005b838110156111c55780820151818401526020810190506111aa565b50505050905090810190601f1680156111f25780820380516001836020036101000a031916815260200191505b50848103825288818151815260200191508051906020019080838360005b8381101561122b578082015181840152602081019050611210565b50505050905090810190601f1680156112585780820380516001836020036101000a031916815260200191505b509a505050505050505050505060405180910390f35b34801561127a57600080fd5b506112996004803603810190808035906020019092919050505061395c565b604051808215151515815260200191505060405180910390f35b3480156112bf57600080fd5b506112c861397c565b604051808273ffffffffffffffffffffffffffffffffffffffff1673ffffffffffffffffffffffffffffffffffffffff16815260200191505060405180910390f35b34801561131657600080fd5b50611335600480360381019080803590602001909291905050506139a1565b60405180848152602001806020018373ffffffffffffffffffffffffffffffffffffffff1673ffffffffffffffffffffffffffffffffffffffff168152602001828103825284818151815260200191508051906020019080838360005b838110156113ad578082015181840152602081019050611392565b50505050905090810190601f1680156113da5780820380516001836020036101000a031916815260200191505b5094505050505060405180910390f35b60086020528060005260406000206000915054906101000a900460ff1681565b6000606080606060006060600960008873ffffffffffffffffffffffffffffffffffffffff1673ffffffffffffffffffffffffffffffffffffffff16815260200190815260200160002060000160009054906101000a900473ffffffffffffffffffffffffffffffffffffffff16600960008973ffffffffffffffffffffffffffffffffffffffff1673ffffffffffffffffffffffffffffffffffffffff168152602001908152602001600020600101600960008a73ffffffffffffffffffffffffffffffffffffffff1673ffffffffffffffffffffffffffffffffffffffff168152602001908152602001600020600201600960008b73ffffffffffffffffffffffffffffffffffffffff1673ffffffffffffffffffffffffffffffffffffffff168152602001908152602001600020600301600960008c73ffffffffffffffffffffffffffffffffffffffff1673ffffffffffffffffffffffffffffffffffffffff16815260200190815260200160002060040154600960008d73ffffffffffffffffffffffffffffffffffffffff1673ffffffffffffffffffffffffffffffffffffffff168152602001908152602001600020600501848054600181600116156101000203166002900480601f0160208091040260200160405190810160405280929190818152602001828054600181600116156101000203166002900480156116585780601f1061162d57610100808354040283529160200191611658565b820191906000526020600020905b81548152906001019060200180831161163b57829003601f168201915b50505050509450838054600181600116156101000203166002900480601f0160208091040260200160405190810160405280929190818152602001828054600181600116156101000203166002900480156116f45780601f106116c9576101008083540402835291602001916116f4565b820191906000526020600020905b8154815290600101906020018083116116d757829003601f168201915b50505050509350828054600181600116156101000203166002900480601f0160208091040260200160405190810160405280929190818152602001828054600181600116156101000203166002900480156117905780601f1061176557610100808354040283529160200191611790565b820191906000526020600020905b81548152906001019060200180831161177357829003601f168201915b50505050509250808054600181600116156101000203166002900480601f01602080910402602001604051908101604052809291908181526020018280546001816001161561010002031660029004801561182c5780601f106118015761010080835404028352916020019161182c565b820191906000526020600020905b81548152906001019060200180831161180f57829003601f168201915b5050505050905095509550955095509550955091939550919395565b3373ffffffffffffffffffffffffffffffffffffffff166000809054906101000a900473ffffffffffffffffffffffffffffffffffffffff1673ffffffffffffffffffffffffffffffffffffffff16141515611932576040517f08c379a00000000000000000000000000000000000000000000000000000000081526004018080602001828103825260258152602001807f4f6e6c792061646d696e2063616e206578656375746520746869732066756e6381526020017f74696f6e2100000000000000000000000000000000000000000000000000000081525060400191505060405180910390fd5b8573ffffffffffffffffffffffffffffffffffffffff166000809054906101000a900473ffffffffffffffffffffffffffffffffffffffff1673ffffffffffffffffffffffffffffffffffffffff16141515156119f7576040517f08c379a00000000000000000000000000000000000000000000000000000000081526004018080602001828103825260168152602001807f41646d696e2063616e2774206265206120766f7465720000000000000000000081525060200191505060405180910390fd5b600560008773ffffffffffffffffffffffffffffffffffffffff1673ffffffffffffffffffffffffffffffffffffffff16815260200190815260200160002060009054906101000a900460ff16151515611ab9576040517f08c379a00000000000000000000000000000000000000000000000000000000081526004018080602001828103825260148152602001807f566f74657220616c72656164792065786973742100000000000000000000000081525060200191505060405180910390fd5b60048690806001815401808255809150509060018203906000526020600020016000909192909190916101000a81548173ffffffffffffffffffffffffffffffffffffffff021916908373ffffffffffffffffffffffffffffffffffffffff160217905550506001600560008873ffffffffffffffffffffffffffffffffffffffff1673ffffffffffffffffffffffffffffffffffffffff16815260200190815260200160002060006101000a81548160ff02191690831515021790555085600660008873ffffffffffffffffffffffffffffffffffffffff1673ffffffffffffffffffffffffffffffffffffffff16815260200190815260200160002060000160006101000a81548173ffffffffffffffffffffffffffffffffffffffff021916908373ffffffffffffffffffffffffffffffffffffffff16021790555084600660008873ffffffffffffffffffffffffffffffffffffffff1673ffffffffffffffffffffffffffffffffffffffff1681526020019081526020016000206001019080519060200190611c4e929190613a83565b5083600660008873ffffffffffffffffffffffffffffffffffffffff1673ffffffffffffffffffffffffffffffffffffffff1681526020019081526020016000206002019080519060200190611ca5929190613a83565b5082600660008873ffffffffffffffffffffffffffffffffffffffff1673ffffffffffffffffffffffffffffffffffffffff1681526020019081526020016000206003019080519060200190611cfc929190613a83565b5081600660008873ffffffffffffffffffffffffffffffffffffffff1673ffffffffffffffffffffffffffffffffffffffff1681526020019081526020016000206004018190555080600660008873ffffffffffffffffffffffffffffffffffffffff1673ffffffffffffffffffffffffffffffffffffffff16815260200190815260200160002060050160006101000a81548160ff021916908360ff1602179055506000600660008873ffffffffffffffffffffffffffffffffffffffff1673ffffffffffffffffffffffffffffffffffffffff16815260200190815260200160002060050160016101000a81548160ff021916908315150217905550600c60008381526020019081526020016000206003018690806001815401808255809150509060018203906000526020600020016000909192909190916101000a81548173ffffffffffffffffffffffffffffffffffffffff021916908373ffffffffffffffffffffffffffffffffffffffff16021790555050505050505050565b6060600a805480602002602001604051908101604052809291908181526020018280548015611eca57602002820191906000526020600020905b815481526020019060010190808311611eb6575b5050505050905090565b6000600960003373ffffffffffffffffffffffffffffffffffffffff1673ffffffffffffffffffffffffffffffffffffffff16815260200190815260200160002060040154905090565b600a81815481101515611f2d57fe5b906000526020600020016000915090505481565b6000600c600084815260200190815260200160002060040160008373ffffffffffffffffffffffffffffffffffffffff1673ffffffffffffffffffffffffffffffffffffffff16815260200190815260200160002054905092915050565b3373ffffffffffffffffffffffffffffffffffffffff166000809054906101000a900473ffffffffffffffffffffffffffffffffffffffff1673ffffffffffffffffffffffffffffffffffffffff16141515612089576040517f08c379a00000000000000000000000000000000000000000000000000000000081526004018080602001828103825260258152602001807f4f6e6c792061646d696e2063616e206578656375746520746869732066756e6381526020017f74696f6e2100000000000000000000000000000000000000000000000000000081525060400191505060405180910390fd5b60035442111515612102576040517f08c379a00000000000000000000000000000000000000000000000000000000081526004018080602001828103825260198152602001807f456c656374696f6e206973206e6f7420636f6d706c657465640000000000000081525060200191505060405180910390fd5b600260009054906101000a900460ff161515612186576040517f08c379a00000000000000000000000000000000000000000000000000000000081526004018080602001828103825260168152602001807f456c656374696f6e206973206e6f74206163746976650000000000000000000081525060200191505060405180910390fd5b6000600260006101000a81548160ff021916908315150217905550565b6004818154811015156121b257fe5b906000526020600020016000915054906101000a900473ffffffffffffffffffffffffffffffffffffffff1681565b6000600260009054906101000a900460ff161515612267576040517f08c379a000000000000000000000000000000000000000000000000000000000815260040180806020018281038252601a8152602001807f456c656374696f6e206d757374206265206f6e2f61637469766500000000000081525060200191505060405180910390fd5b3373ffffffffffffffffffffffffffffffffffffffff166000809054906101000a900473ffffffffffffffffffffffffffffffffffffffff1673ffffffffffffffffffffffffffffffffffffffff161415151561232c576040517f08c379a00000000000000000000000000000000000000000000000000000000081526004018080602001828103825260178152602001807f41646d696e2063616e27742063617374206120766f746500000000000000000081525060200191505060405180910390fd5b600660003373ffffffffffffffffffffffffffffffffffffffff1673ffffffffffffffffffffffffffffffffffffffff16815260200190815260200160002060050160019054906101000a900460ff161515156123f1576040517f08c379a000000000000000000000000000000000000000000000000000000000815260040180806020018281038252601d8152602001807f566f74657220616c7265616479206361737465642068697320766f746500000081525060200191505060405180910390fd5b82600960008473ffffffffffffffffffffffffffffffffffffffff1673ffffffffffffffffffffffffffffffffffffffff168152602001908152602001600020600401541415612501576001600c600085815260200190815260200160002060040160008473ffffffffffffffffffffffffffffffffffffffff1673ffffffffffffffffffffffffffffffffffffffff168152602001908152602001600020600082825401925050819055506001600660003373ffffffffffffffffffffffffffffffffffffffff1673ffffffffffffffffffffffffffffffffffffffff16815260200190815260200160002060050160016101000a81548160ff02191690831515021790555060019050612506565b600090505b92915050565b6060600780548060200260200160405190810160405280929190818152602001828054801561259057602002820191906000526020600020905b8160009054906101000a900473ffffffffffffffffffffffffffffffffffffffff1673ffffffffffffffffffffffffffffffffffffffff1681526020019060010190808311612546575b5050505050905090565b3373ffffffffffffffffffffffffffffffffffffffff166000809054906101000a900473ffffffffffffffffffffffffffffffffffffffff1673ffffffffffffffffffffffffffffffffffffffff16141515612684576040517f08c379a00000000000000000000000000000000000000000000000000000000081526004018080602001828103825260258152602001807f4f6e6c792061646d696e2063616e206578656375746520746869732066756e6381526020017f74696f6e2100000000000000000000000000000000000000000000000000000081525060400191505060405180910390fd5b600b600083815260200190815260200160002060009054906101000a900460ff1615151561271a576040517f08c379a00000000000000000000000000000000000000000000000000000000081526004018080602001828103825260198152602001807f436f6e73697475656e637920616c72656164792065786973740000000000000081525060200191505060405180910390fd5b6001600b600084815260200190815260200160002060006101000a81548160ff02191690831515021790555081600c60008481526020019081526020016000206000018190555080600c6000848152602001908152602001600020600101908051906020019061278b929190613a83565b50600a8290806001815401808255809150509060018203906000526020600020016000909192909190915055505050565b60018054600181600116156101000203166002900480601f0160208091040260200160405190810160405280929190818152602001828054600181600116156101000203166002900480156128525780601f1061282757610100808354040283529160200191612852565b820191906000526020600020905b81548152906001019060200180831161283557829003601f168201915b505050505081565b60006060806060600080600660008873ffffffffffffffffffffffffffffffffffffffff1673ffffffffffffffffffffffffffffffffffffffff16815260200190815260200160002060000160009054906101000a900473ffffffffffffffffffffffffffffffffffffffff16600660008973ffffffffffffffffffffffffffffffffffffffff1673ffffffffffffffffffffffffffffffffffffffff168152602001908152602001600020600101600660008a73ffffffffffffffffffffffffffffffffffffffff1673ffffffffffffffffffffffffffffffffffffffff168152602001908152602001600020600201600660008b73ffffffffffffffffffffffffffffffffffffffff1673ffffffffffffffffffffffffffffffffffffffff168152602001908152602001600020600301600660008c73ffffffffffffffffffffffffffffffffffffffff1673ffffffffffffffffffffffffffffffffffffffff16815260200190815260200160002060040154600660008d73ffffffffffffffffffffffffffffffffffffffff1673ffffffffffffffffffffffffffffffffffffffff16815260200190815260200160002060050160009054906101000a900460ff16848054600181600116156101000203166002900480601f016020809104026020016040519081016040528092919081815260200182805460018160011615610100020316600290048015612ab55780601f10612a8a57610100808354040283529160200191612ab5565b820191906000526020600020905b815481529060010190602001808311612a9857829003601f168201915b50505050509450838054600181600116156101000203166002900480601f016020809104026020016040519081016040528092919081815260200182805460018160011615610100020316600290048015612b515780601f10612b2657610100808354040283529160200191612b51565b820191906000526020600020905b815481529060010190602001808311612b3457829003601f168201915b50505050509350828054600181600116156101000203166002900480601f016020809104026020016040519081016040528092919081815260200182805460018160011615610100020316600290048015612bed5780601f10612bc257610100808354040283529160200191612bed565b820191906000526020600020905b815481529060010190602001808311612bd057829003601f168201915b5050505050925095509550955095509550955091939550919395565b60096020528060005260406000206000915090508060000160009054906101000a900473ffffffffffffffffffffffffffffffffffffffff1690806001018054600181600116156101000203166002900480601f016020809104026020016040519081016040528092919081815260200182805460018160011615610100020316600290048015612cdb5780601f10612cb057610100808354040283529160200191612cdb565b820191906000526020600020905b815481529060010190602001808311612cbe57829003601f168201915b505050505090806002018054600181600116156101000203166002900480601f016020809104026020016040519081016040528092919081815260200182805460018160011615610100020316600290048015612d795780601f10612d4e57610100808354040283529160200191612d79565b820191906000526020600020905b815481529060010190602001808311612d5c57829003601f168201915b505050505090806003018054600181600116156101000203166002900480601f016020809104026020016040519081016040528092919081815260200182805460018160011615610100020316600290048015612e175780601f10612dec57610100808354040283529160200191612e17565b820191906000526020600020905b815481529060010190602001808311612dfa57829003601f168201915b505050505090806004015490806005018054600181600116156101000203166002900480601f016020809104026020016040519081016040528092919081815260200182805460018160011615610100020316600290048015612ebb5780601f10612e9057610100808354040283529160200191612ebb565b820191906000526020600020905b815481529060010190602001808311612e9e57829003601f168201915b5050505050905086565b60606004805480602002602001604051908101604052809291908181526020018280548015612f4957602002820191906000526020600020905b8160009054906101000a900473ffffffffffffffffffffffffffffffffffffffff1673ffffffffffffffffffffffffffffffffffffffff1681526020019060010190808311612eff575b5050505050905090565b6060600c6000838152602001908152602001600020600301805480602002602001604051908101604052809291908181526020018280548015612feb57602002820191906000526020600020905b8160009054906101000a900473ffffffffffffffffffffffffffffffffffffffff1673ffffffffffffffffffffffffffffffffffffffff1681526020019060010190808311612fa1575b50505050509050919050565b6000600660003373ffffffffffffffffffffffffffffffffffffffff1673ffffffffffffffffffffffffffffffffffffffff16815260200190815260200160002060040154905090565b60078181548110151561305057fe5b906000526020600020016000915054906101000a900473ffffffffffffffffffffffffffffffffffffffff1681565b60056020528060005260406000206000915054906101000a900460ff1681565b3373ffffffffffffffffffffffffffffffffffffffff166000809054906101000a900473ffffffffffffffffffffffffffffffffffffffff1673ffffffffffffffffffffffffffffffffffffffff16141515613189576040517f08c379a00000000000000000000000000000000000000000000000000000000081526004018080602001828103825260258152602001807f4f6e6c792061646d696e2063616e206578656375746520746869732066756e6381526020017f74696f6e2100000000000000000000000000000000000000000000000000000081525060400191505060405180910390fd5b8573ffffffffffffffffffffffffffffffffffffffff166000809054906101000a900473ffffffffffffffffffffffffffffffffffffffff1673ffffffffffffffffffffffffffffffffffffffff161415151561324e576040517f08c379a000000000000000000000000000000000000000000000000000000000815260040180806020018281038252601a8152602001807f41646d696e2063616e277420626520612063616e64696461746500000000000081525060200191505060405180910390fd5b600860008773ffffffffffffffffffffffffffffffffffffffff1673ffffffffffffffffffffffffffffffffffffffff16815260200190815260200160002060009054906101000a900460ff16151515613310576040517f08c379a00000000000000000000000000000000000000000000000000000000081526004018080602001828103825260188152602001807f43616e64696461746520616c726561647920657869737421000000000000000081525060200191505060405180910390fd5b60078690806001815401808255809150509060018203906000526020600020016000909192909190916101000a81548173ffffffffffffffffffffffffffffffffffffffff021916908373ffffffffffffffffffffffffffffffffffffffff160217905550506001600860008873ffffffffffffffffffffffffffffffffffffffff1673ffffffffffffffffffffffffffffffffffffffff16815260200190815260200160002060006101000a81548160ff02191690831515021790555085600960008873ffffffffffffffffffffffffffffffffffffffff1673ffffffffffffffffffffffffffffffffffffffff16815260200190815260200160002060000160006101000a81548173ffffffffffffffffffffffffffffffffffffffff021916908373ffffffffffffffffffffffffffffffffffffffff16021790555084600960008873ffffffffffffffffffffffffffffffffffffffff1673ffffffffffffffffffffffffffffffffffffffff16815260200190815260200160002060010190805190602001906134a5929190613a83565b5083600960008873ffffffffffffffffffffffffffffffffffffffff1673ffffffffffffffffffffffffffffffffffffffff16815260200190815260200160002060020190805190602001906134fc929190613a83565b5082600960008873ffffffffffffffffffffffffffffffffffffffff1673ffffffffffffffffffffffffffffffffffffffff1681526020019081526020016000206003019080519060200190613553929190613a83565b5081600960008873ffffffffffffffffffffffffffffffffffffffff1673ffffffffffffffffffffffffffffffffffffffff1681526020019081526020016000206004018190555080600960008873ffffffffffffffffffffffffffffffffffffffff1673ffffffffffffffffffffffffffffffffffffffff16815260200190815260200160002060050190805190602001906135f1929190613a83565b50600c60008381526020019081526020016000206002018690806001815401808255809150509060018203906000526020600020016000909192909190916101000a81548173ffffffffffffffffffffffffffffffffffffffff021916908373ffffffffffffffffffffffffffffffffffffffff16021790555050505050505050565b6060600c600083815260200190815260200160002060020180548060200260200160405190810160405280929190818152602001828054801561370c57602002820191906000526020600020905b8160009054906101000a900473ffffffffffffffffffffffffffffffffffffffff1673ffffffffffffffffffffffffffffffffffffffff16815260200190600101908083116136c2575b50505050509050919050565b60066020528060005260406000206000915090508060000160009054906101000a900473ffffffffffffffffffffffffffffffffffffffff1690806001018054600181600116156101000203166002900480601f0160208091040260200160405190810160405280929190818152602001828054600181600116156101000203166002900480156137ea5780601f106137bf576101008083540402835291602001916137ea565b820191906000526020600020905b8154815290600101906020018083116137cd57829003601f168201915b505050505090806002018054600181600116156101000203166002900480601f0160208091040260200160405190810160405280929190818152602001828054600181600116156101000203166002900480156138885780601f1061385d57610100808354040283529160200191613888565b820191906000526020600020905b81548152906001019060200180831161386b57829003601f168201915b505050505090806003018054600181600116156101000203166002900480601f0160208091040260200160405190810160405280929190818152602001828054600181600116156101000203166002900480156139265780601f106138fb57610100808354040283529160200191613926565b820191906000526020600020905b81548152906001019060200180831161390957829003601f168201915b5050505050908060040154908060050160009054906101000a900460ff16908060050160019054906101000a900460ff16905087565b600b6020528060005260406000206000915054906101000a900460ff1681565b6000809054906101000a900473ffffffffffffffffffffffffffffffffffffffff1681565b600c602052806000526040600020600091509050806000015490806001018054600181600116156101000203166002900480601f016020809104026020016040519081016040528092919081815260200182805460018160011615610100020316600290048015613a535780601f10613a2857610100808354040283529160200191613a53565b820191906000526020600020905b815481529060010190602001808311613a3657829003601f168201915b5050505050908060050160009054906101000a900473ffffffffffffffffffffffffffffffffffffffff16905083565b828054600181600116156101000203166002900490600052602060002090601f016020900481019282601f10613ac457805160ff1916838001178555613af2565b82800160010185558215613af2579182015b82811115613af1578251825591602001919060010190613ad6565b5b509050613aff9190613b03565b5090565b613b2591905b80821115613b21576000816000905550600101613b09565b5090565b905600a165627a7a72305820624d224be469ae5f47ed21ca9a431a0fcd1be483046788b391a95348c410b8d50029a165627a7a7230582047a3f5df16144b88b156731fd2c1ab1a405754a368e3a18a36594ac027490ffb0029",
  "source": "pragma solidity ^0.4.25;\r\n\r\ncontract ElectionFactory {\r\n    \r\n    address[] public electionConducted;\r\n\r\n    event ElectionEvent(address _admin, address _electionAddress);\r\n    \r\n    function createElection (uint _durationInMinutes, string _electionName) public {\r\n        address newElection = new Election(_durationInMinutes, msg.sender, _electionName);\r\n        electionConducted.push(newElection);\r\n        emit ElectionEvent(msg.sender, newElection);\r\n    }\r\n    \r\n    function getElections() public view returns(address[] _conductedElection) {\r\n        return electionConducted;\r\n    }\r\n    \r\n}\r\n\r\n\r\ncontract Election {\r\n    address public admin;\r\n    string public electionName;\r\n    bool electionStatus;\r\n    uint electionDuration;\r\n\r\n    struct Voter {\r\n        address voterId;\r\n        string name;\r\n        string email;\r\n        string phoneNo;\r\n        uint consituencyId;\r\n        uint8 age;\r\n        bool voted;\r\n    }\r\n    \r\n    struct Candidate {\r\n        address candidateId;\r\n        string name;\r\n        string email;\r\n        string phoneNo;\r\n        uint consituencyId;\r\n        string party;\r\n    }\r\n    \r\n    struct Consituency {\r\n        uint consituencyId;\r\n        string name;\r\n        address[] candidates;\r\n        address[] voters;\r\n        mapping(address => uint) votes;\r\n        address winner;\r\n    }\r\n\r\n    address[] public votersList;\r\n    mapping (address => bool) public voterExist;\r\n    mapping (address => Voter) public voterData;\r\n    \r\n    address[] public candidateList;\r\n    mapping (address => bool) public candidateExist;\r\n    mapping (address => Candidate) public candidateData;\r\n\r\n    uint[] public consituencyList;\r\n    mapping (uint => bool) public consituencyExist;\r\n    mapping (uint => Consituency) public consituencyData;\r\n\r\n    constructor(uint _durationInMinutes, address _admin, string _electionName) public {\r\n        admin = _admin;\r\n        electionName = _electionName;\r\n        electionStatus = true;\r\n        electionDuration = now +(_durationInMinutes * 60); \r\n    }\r\n    \r\n    modifier onlyAdmin {\r\n        require(admin == msg.sender, \"Only admin can execute this function!\");\r\n        _;\r\n    }\r\n    \r\n    // modifier isElectionActive {\r\n    //     require(electionStatus, \"Election is close\");\r\n    //     require(now < electionDuration, \"Election is close\");\r\n    //     _;\r\n    // }\r\n    \r\n    function getCandidateData(address _candidateId) public view returns(address, string, string, string, uint, string){\r\n        return (candidateData[_candidateId].candidateId, candidateData[_candidateId].name, candidateData[_candidateId].email, candidateData[_candidateId].phoneNo, candidateData[_candidateId].consituencyId, candidateData[_candidateId].party);\r\n    }\r\n    \r\n    function getVoterData(address _voterId) public view returns(address, string, string, string, uint256, uint8){\r\n        return (voterData[_voterId].voterId,voterData[_voterId].name,voterData[_voterId].email,voterData[_voterId].phoneNo,voterData[_voterId].consituencyId,voterData[_voterId].age);\r\n    }\r\n    \r\n\r\n    function addConsituency(uint _consituencyId, string _name) public onlyAdmin {\r\n        require(!consituencyExist[_consituencyId], \"Consituency already exist\");\r\n        consituencyExist[_consituencyId] = true;\r\n        consituencyData[_consituencyId].consituencyId = _consituencyId;\r\n        consituencyData[_consituencyId].name = _name;\r\n        consituencyList.push(_consituencyId);\r\n    }\r\n    \r\n    function getConsituencyIdList() public view returns(uint[]) {\r\n        return consituencyList;\r\n    }\r\n   \r\n    function addCandidate(address _candidateId, string _name, string _email, string _phoneNo, uint _consituencyId, string _party) public onlyAdmin{\r\n        // check if admin is registering himself as candidate\r\n        require(admin != _candidateId, \"Admin can't be a candidate\");\r\n        \r\n        // It will check if candidate is registered or not\r\n        require(!candidateExist[_candidateId], \"Candidate already exist!\");\r\n        // add candidate in candidateList\r\n        candidateList.push(_candidateId);\r\n            \r\n        candidateExist[_candidateId] = true;\r\n        candidateData[_candidateId].candidateId = _candidateId;\r\n        candidateData[_candidateId].name = _name;\r\n        candidateData[_candidateId].email = _email;\r\n        candidateData[_candidateId].phoneNo = _phoneNo;\r\n        candidateData[_candidateId].consituencyId = _consituencyId;\r\n        candidateData[_candidateId].party = _party;\r\n        // add candidate to its consituency\r\n        consituencyData[_consituencyId].candidates.push(_candidateId);\r\n    }\r\n    \r\n    function getCandidatesIdList() public view returns(address[]) {\r\n        return candidateList;\r\n    }\r\n    \r\n    // get candidate list enrolled in a consituency\r\n    function getConsituencyCandidates(uint _consituencyId) public view returns(address[]) {\r\n        return consituencyData[_consituencyId].candidates;\r\n    }\r\n\r\n    // get consituency of a candidate\r\n    function getCandidateConsituency () public view returns(uint) {\r\n        return candidateData[msg.sender].consituencyId;\r\n    }\r\n    \r\n    function addVoter(address _voterId, string _name, string _email,string _phoneNo, uint _consituencyId, uint8 _age) \r\n        public onlyAdmin{\r\n        // check if admin is registering himself\r\n        require(admin != _voterId, \"Admin can't be a voter\");\r\n        // It will check if voter is registered or not\r\n        require(!voterExist[_voterId], \"Voter already exist!\");\r\n        \r\n        votersList.push(_voterId);\r\n        \r\n        voterExist[_voterId] = true;\r\n        \r\n        voterData[_voterId].voterId = _voterId;\r\n        voterData[_voterId].name = _name;\r\n        voterData[_voterId].email = _email;\r\n        voterData[_voterId].phoneNo = _phoneNo;\r\n        voterData[_voterId].consituencyId = _consituencyId;\r\n        voterData[_voterId].age = _age;\r\n        voterData[_voterId].voted = false;\r\n        \r\n        // add voter to its consituency\r\n        consituencyData[_consituencyId].voters.push(_voterId);\r\n    }\r\n\r\n    function getVotersIdList() public view returns(address[]) {\r\n        return votersList;\r\n    }\r\n    \r\n    // get voters list enrolled in a consituency\r\n    function getConsituencyVoters(uint _consituencyId) public view returns(address[]) {\r\n        return consituencyData[_consituencyId].voters;\r\n    }\r\n\r\n    // get consituency of a voter\r\n    function getVoterConsituency() public view returns(uint) {\r\n        return voterData[msg.sender].consituencyId;\r\n    }\r\n    \r\n    function castVote(uint _consituencyId, address _candidateId) public returns(bool status) {\r\n         //election must be active\r\n        require(electionStatus, \"Election must be on/active\");\r\n\r\n        // admin can't cast a vote\r\n        require(admin != msg.sender, \"Admin can't cast a vote\");\r\n\r\n        // check if voter has voted or not\r\n        require(!voterData[msg.sender].voted, \"Voter already casted his vote\");\r\n        \r\n        // check if candidate is of respective consituency\r\n        if(candidateData[_candidateId].consituencyId == _consituencyId) {\r\n            consituencyData[_consituencyId].votes[_candidateId] += 1;\r\n            voterData[msg.sender].voted = true;\r\n            return true;\r\n        }else {\r\n            return false;\r\n        }\r\n    }\r\n\r\n    function getVotes(uint _consituencyId, address _candidateId) public view returns(uint) {\r\n        return consituencyData[_consituencyId].votes[_candidateId];\r\n    }\r\n    function closeElection() public onlyAdmin {\r\n        require(now > electionDuration, \"Election is not completed\");\r\n        require(electionStatus, \"Election is not active\");\r\n        electionStatus = false;\r\n    }\r\n    \r\n}",
  "sourcePath": "C:/Users/TEJA/Desktop/election/contracts/Election.sol",
  "compiler": {
    "name": "solc",
    "version": "0.4.25+commit.59dbf8f1.Emscripten.clang"
  },
  "schemaVersion": "3.4.1",
  "updatedAt": "2021-06-23T10:38:49.469Z",
  "devdoc": {
    "methods": {}
  },
  "userdoc": {
    "methods": {}
  }
}